S018000041746D656761204D61696E20636F64652E737265635D
S11300000C9438000C9442000C9442000C9442006E
S11300100C9442000C9442000C9442000C94420054
S11300200C9442000C9442000C9442000C94420044
S11300300C9442000C9442000C9442000C94420034
S11300400C9442000C9442000C9442000C94420024
S11300500C9442000C9442000C9442000C94420014
S11300600C9442000C9442000C9442000C94420004
S113007011241FBECFEFD4E0DEBFCDBF0E945700D6
S11300800C9478000C94000064B324B341E050E075
S1130090FA0102C0EE0FFF1F2A95E2F79F01262BFB
S11300A024BB019711F4A89A0895A898089581E0B3
S11300B090E00E94440024E53DEC8DE293E0215061
S11300C0304080409040D9F700C000C0000080E07C
S11300D090E00E94440024E53DEC8DE293E0215041
S11300E0304080409040D9F700C000C00000DFCF0E
S10700F0F894FFCFAE
S9030000FC
