S01E00007365636F6E64617279204154204D65676120636F64652E7372656334
S11300000C9438000C9442000C9442000C9442006E
S11300100C9442000C9442000C9442000C94420054
S11300200C9442000C9442000C9442000C94420044
S11300300C9442000C9442000C9442000C94420034
S11300400C9442000C9442000C9442000C94420024
S11300500C9442000C9442000C9442000C94420014
S11300600C9442000C9442000C9442000C94420004
S113007011241FBECFEFD4E0DEBFCDBF0E944800E5
S11300800C944E000C9400008BB38F678BBB0895C7
S11300908AB38F678ABB0E944400FDCFF894FFCFD8
S9030000FC
