S020000041746D656761313632207365636F6E6461727920636F64652E7372656379
S11300000C9438000C9442000C9442000C9442006E
S11300100C9442000C9442000C9442000C94420054
S11300200C9442000C9442000C9442000C94420044
S11300300C9442000C9442000C9442000C94420034
S11300400C9442000C9442000C9442000C94420024
S11300500C9442000C9442000C9442000C94420014
S11300600C9442000C9442000C9442000C94420004
S113007011241FBECFEFD4E0DEBFCDBF0E949B0092
S11300800C94EE000C9400009BB321E030E0082EA9
S113009001C0220F0A94EAF7922B9BBB08959BB3ED
S11300A021E030E0082E01C0220F0A94EAF72095DF
S11300B029232BBB089581E090E00E94440082E054
S11300C090E00E944F0084E090E00E94440085E0AC
S11300D090E00C944F0081E090E00E944F0082E099
S11300E090E00E94440084E090E00E944F0085E08C
S11300F090E00C94440081E090E00E94440082E08F
S113010090E00E944F0084E090E00E944F0085E060
S113011090E00C94440081E090E00E944F0082E063
S113012090E00E94440084E090E00E94440085E056
S113013090E00C944F008AB38F678ABB1BBA80E0AF
S113014090E00E94440083E090E00E94440086E036
S113015090E00E9444000E945B002FEF83EC99E042
S1130160215080409040E1F700C000000E947B00D5
S11301702FEF83EC99E0215080409040E1F700C0DC
S113018000000E945B002FEF83EC99E02150804037
S11301909040E1F700C000000E948B002FEF83EC39
S11301A099E0215080409040E1F700C000000E9497
S11301B05B002FEF83EC99E0215080409040E1F701
S11301C000C000000E946B002FEF83EC99E02150E7
S11301D080409040E1F700C00000BDCFF894FFCF0D
S9030000FC
