S020000041746D656761313632207365636F6E6461727920636F64652E7372656379
S11300000C9438000C9442000C9442000C9442006E
S11300100C9442000C9442000C9442000C94420054
S11300200C9442000C9442000C9442000C94420044
S11300300C9442000C9442000C9442000C94420034
S11300400C9442000C9442000C9442000C94420024
S11300500C9442000C9442000C9442000C94420014
S11300600C9442000C9442000C9442000C94420004
S113007011241FBECFEFD4E0DEBFCDBF0E946200CB
S11300800C94A4000C940000D998DA9ADB9ADC98BA
S1130090DD9A0895D99ADA98DB9ADC9ADD98089566
S11300A0D998DA9ADB9ADC9ADD980895D99ADA9885
S11300B0DB9ADC9ADD980895D99ADA9ADB98DC9A6F
S11300C0DD9A08958AB38F678ABBD89ADE9A0E9414
S11300D044002AEA32E085EE9FE02150304080401F
S11300E09040D9F700000E944A002AEA32E085EEE7
S11300F09FE02150304080409040D9F700000E949A
S113010050002AEA32E085EE9FE0215030408040E2
S11301109040D9F700000E9456002AEA32E085EEAA
S11301209FE02150304080409040D9F700000E9469
S11301305C002AEA32E085EE9FE0215030408040A6
S10F01409040D9F70000C3CFF894FFCF23
S9030000FC
