:100000000C9438000C9442000C9442000C94420072
:100010000C9442000C9442000C9442000C94420058
:100020000C9442000C9442000C9442000C94420048
:100030000C9442000C9442000C9442000C94420038
:100040000C9442000C9442000C9442000C94420028
:100050000C9442000C9442000C9442000C94420018
:100060000C9442000C9442000C9442000C94420008
:1000700011241FBECFEFD4E0DEBFCDBF0E944A00E7
:100080000C9454000C940000019711F4DB9A08952D
:10009000DB9808958AB38F678ABBD89ADE9A81E08D
:0C00A00090E00E944400FBCFF894FFCFDA
:00000001FF
